:100000000C9446000C9465000C9465000C946500FB
:100010000C9465000C948C000C94BC000C9465004E
:100020000C9465000C9465000C9467000C946500BA
:100030000C9465000C9465000C9465000C946500AC
:100040000C94DF120C9465000C9465000C94650010
:100050000C9465000C9465000C9465000C9465008C
:100060000C9465000C9465000C9465000C9465007C
:100070000C9465000C9465000C9465000C9465006C
:100080000C9465000C9465000C94650011241FBE4F
:10009000CFEFD0E1DEBFCDBF13E0A0E0B1E0E8E6F6
:1000A000F4E300E00BBF02C007900D92A233B1074A
:1000B000D9F717E0A2E3B3E001C01D92A73EB10754
:1000C000E1F70E94B2040C94321A0C9400001F92C3
:1000D0000F920FB60F9211248F939F93809132034A
:1000E000909133031816190674F418BA109233035A
:1000F0001092320381E184BD9F918F910F900FBECA
:100100000F901F90189580E188BB81E090E090935C
:10011000330380933203EECF1F920F920FB60F92EC
:1001200011242F933F934F935F938F939F938091CD
:1001300034039091350320E030E018161906CCF412
:10014000309335032093340328EE33E040E951E047
:10015000CA010197F1F721503040D1F79F918F915B
:100160005F914F913F912F910F900FBE0F901F9075
:10017000189521E030E0E4CF1F920F920FB60F9256
:1001800011242F933F934F935F938F939F9380916D
:1001900020019091210120E030E018161906CCF4DE
:1001A000309321012093200128EE33E040E951E013
:1001B000CA010197F1F721503040D1F79F918F91FB
:1001C0005F914F913F912F910F900FBE0F901F9015
:1001D000189521E030E0E4CF8FEF84BB809364007A
:1001E00083E082BB80B58B7F80BD80EC8093700004
:1001F000E1E7F0E080818C7F80830895982F84EA86
:10020000809374008091740087FFFCCF809171000F
:10021000887F8830B9F788E98093730084E88093F9
:1002200074008091740087FFFCCF80917100887FFB
:100230008831B9F79093730084E8809374008091BB
:10024000740087FFFCCF80917100887F8832B9F7F6
:100250006093730084E8809374008091740087FF3A
:10026000FCCF80917100887F8832B9F784E9809350
:1002700074000895982F84EA80937400809174002C
:1002800087FFFCCF80917100887F8830B9F788E9BB
:100290008093730084E8809374008091740087FFDA
:1002A000FCCF80917100887F8831B9F790937300FB
:1002B00084E8809374008091740087FFFCCF809164
:1002C0007100887F8832B9F784EA80937400809146
:1002D000740087FFFCCF80917100887F8031B9F76F
:1002E00089E98093730084E880937400809174009E
:1002F00087FFFCCF80917100887F8034B9F784EC50
:10030000809374008091740087FFFCCF809171000E
:10031000887F8035B9F73091730084E8809374004A
:100320008091740087FFFCCF80917100887F8835B1
:10033000B9F72091730084E980937400932F80E0D3
:1003400030E0282B392BC90108955F926F927F927C
:100350008F929F92AF92BF92CF92DF92EF92FF92D5
:100360000F931F93DF93CF9300D0CDB7DEB789E70C
:1003700089838FEF8ABB92E0A92EB12CAC0EBD1EF3
:100380006E010894C11CD11C84E6882E912C552442
:100390005A9407E0602E712C11E0E12EF12C80912F
:1003A0003A0490913B0460E070E0A5010E94B00E19
:1003B000FC01808191816AE070E00E94B219CB015A
:1003C0006AE070E00E94B2199B01CB016AE070E024
:1003D0000E94B219FC01C9016AE070E00E94B219E2
:1003E0009B01CB016AE070E00E94B219182F092F1F
:1003F000C9016AE070E00E94B219CB016115710574
:1004000009F46AC06AE070E00E94B219AC01812F61
:10041000902FBC01660F771F660F771F660F771F3F
:10042000880F991F680F791F6E0F7F1F4A30510583
:1004300008F064C0489D9001499D300D589D300DD5
:100440001124260F371F2235310534F08091200109
:1004500090912101892BB9F12C31310534F0809133
:10046000200190912101019771F11BBA8091340311
:100470009091350318161906F4F4C90137FD3CC0F4
:10048000959587959595879518161906A4F447E0D4
:1004900050E0B301681B790B2BB3C701042E02C0D7
:1004A000880F991F0A94E2F7282B2BBB415050402C
:1004B0004617570789F780913E0590913F05B60191
:1004C0000E94960E6CCF5BBA80913E0590913F05DD
:1004D000B6010E94960E63CF812F902F9C01220FB0
:1004E000331F220F331F220F331F880F991F280F2E
:1004F000391F2E0F3F1FA7CF0396C2CF9B01A3CF5B
:100500002F923F924F925F926F927F928F929F9223
:10051000AF92BF92CF92DF92EF92FF920F931F9311
:10052000DF93CF9300D00F92CDB7DEB71B821A8234
:1005300082E0482E512C4C0E5D1E3E010894611C39
:10054000711C04E6202E312C9DC017FDCDC0B801D2
:1005500060707F77672F770F770B882777FD8095FF
:10056000982F0E94EC1607FF06C020E030E040E024
:100570005FE30E94E91420E030E040E151E40E9492
:10058000161520E030E040EA50E40E94101620E00A
:1005900030E040E052E40E94E9147B018C01BBE0B2
:1005A000AB2EB12CC801B70120E030E040E251E4AD
:1005B0000E9410160E9440134B01C801B7010E940F
:1005C0004013DC01CB016AE070E00E94B2196C01BB
:1005D000C801B70120E030E040E251E40E94161566
:1005E0000E944013DC01CB016AE070E00E94B21966
:1005F0009C01AC01440F551F440F551F440F551F5C
:10060000220F331F420F531F88EE93E0889E900104
:10061000899E300D989E300D1124C29CC001C39C50
:10062000900DD29C900D1124280F391F240F351FD7
:100630003B832A839BE0A916B10421F42F5F3F4F2F
:100640003B832A838091BC049091BD04B2010E9437
:10065000960E809136039091370360E070E0A3011D
:100660000E94B00E80913A0490913B04B2010E9426
:10067000960E80913E0590913F0560E070E0A301E9
:100680000E94B00E80E00E943A018C01809120010E
:1006900090912101892B09F458CF17FD1DC06BE003
:1006A000A62EB12C980120703F77232F330F330BE8
:1006B000C9016AE070E00E94C6194B01C9016AE0F5
:1006C00070E00E94C6196C0107FD03C040E050E0D5
:1006D0009BCF42E350E098CF009510950150104019
:1006E0005AE0A52EB12CDECF009510950150104098
:1006F000B80160707F77672F770F770B882777FDBA
:100700008095982F0E94EC1607FF06C020E030E08D
:1007100040E05FE30E94E91420E030E040E151E472
:100720000E94161520E030E040EA50E40E941016C6
:100730009B01AC0160E070E080E092E40E94B8149C
:100740007B018C01FAE0AF2EB12C2CCF0F931F93BD
:10075000DF93CF930F92CDB7DEB78E010F5F1F4FA0
:10076000809140059091410560E070E0A8010E94F1
:10077000E30B87B7806487BF809138049091390478
:100780000E94C40BEDCF8F929F92AF92BF92CF92F7
:10079000DF92EF92FF920F931F93DF93CF93CDB72A
:1007A000DEB72A970FB6F894DEBF0FBECDBF89E73C
:1007B00089838FEF84BB8FE08093640072E0A72E63
:1007C000B12CAC0EBD1E6E010894C11CD11C64E698
:1007D000862E912C8091BC049091BD0460E070E065
:1007E000A5010E94B00EFC01808191819C012170C5
:1007F0003070265F3F4F3A8729876AE070E00E9499
:10080000B2199B01CB016AE070E00E94B2199C838F
:100810008B83C9016AE070E00E94B2199B01CB0191
:100820006AE070E00E94B219FC019E838D83C901C9
:100830006AE070E00E94B2199B01CB016AE070E0AF
:100840000E94B219482F192F8F839887C9016AE037
:1008500070E00E94B219CB016115710531F06AE0B8
:1008600070E00E94B2199A878987842F912F9C018A
:10087000220F331F220F331F220F331F880F991FA0
:10088000280F391F2E0F3F1F89859A858A309105C1
:1008900008F45EC0790100E010E0F801EE0FFF1FE0
:1008A000EC0DFD1D0280F381E02DE050FF4F8081B3
:1008B00085BBF801E45FFE4F8081809365000130C5
:1008C000110569F180E060E040E024E030E00E9442
:1008D000420A0F5F1F4F04301105FCF282E5E81653
:1008E000F10444F18091200190912101892B11F5AF
:1008F00080914005909141050E94C40B809138047D
:100900009091390460E070E0A5010E94E30B8091B2
:10091000360390913703B6010E94960E5BCFAF9AD3
:1009200080E060E040E024E030E00E94420A02E023
:1009300010E0B3CF8CE1E816F10434F0809120018F
:10094000909121010197A1F287B78F7B87BFDFCFFD
:10095000889D7001899DF00C989DF00C1124E20E89
:10096000F31E99CF0E948B11F89487E083BF81E03A
:1009700087BF84E682BF78940E94EC0081E060E04B
:100980000E94FE0080E892E060E070E047E354E0FF
:1009900020E00E94700B83EC93E060E070E04DE398
:1009A00055E021E00E94700B86EA93E060E070E081
:1009B0004BEB54E022E00E94700B85EA91E060E08E
:1009C00070E047EB53E023E00E94700B80E090E082
:1009D0000E9427079093BD048093BC0480E090E0C0
:1009E0000E942707909337038093360380E090E0BE
:1009F0000E941909909339048093380480E090E0B4
:100A00000E941909909341058093400580E090E091
:100A10000E94270790933B0480933A0480E090E083
:100A20000E94270790933F0580933E0580E187BB96
:100A300088BB8FEC82B98AB78A608ABF80E389BF9E
:100A40008FB780688FBF83E085BD87B78F7B87BFF7
:100A500081E184BD81E090E09093210180932001A9
:100A600090933503809334030E940B1180E090E053
:100A70000895FA0180839293129212921292129226
:100A80001292129212921292129212921292129246
:100A90001292129212921292129212921292129236
:100AA0001292129212921292629372931292129274
:100AB0001292129212921292129280E882933197BD
:100AC000CF0108950895089508950895089508950B
:100AD00008950895089580914305813009F008959F
:100AE000809114068F3FD9F38F5F80931406089589
:100AF00080914305813009F00895F8948091420572
:100B00008F3F19F08F5F80934205789408958CEFA2
:100B100090E00895FF920F931F93CF93DF93EC0122
:100B20008B01F42E3981E32FF0E0E65DFE4F20814A
:100B3000422F50E0FA01EE5DFE4F7081DC01A40F00
:100B4000B51F16969C911697E92FF0E0E65DFE4FD3
:100B50008081E82FF0E0EE5DFE4F6081220F220FD2
:100B6000220F280F862F8095892316968C93882331
:100B700021F4872F809538233983E22FF0E0EE0FA0
:100B8000FF1FE753F84F0190F081E02D1486138684
:100B900017821682118700878F2D8095958589236E
:100BA0008587882359F480910E06872B80930E0643
:100BB000FA01E15FF94F8081682B6083822FDF911A
:100BC000CF911F910F91FF900895CF93DF93EC0188
:100BD000A0911506B091160617969C938E931697C2
:100BE00050968C915097482F50E051963C915197D8
:100BF000FA01E15FF94F832F8095908189238083EB
:100C00008823A9F452962C91922F909580910E06EC
:100C1000892380930E06FE01E40FF51F8681832B46
:100C200086838981822B8983DF91CF9108955296A3
:100C30002C91F1CFCF93DF93EC01A0911506B091E9
:100C4000160650968C915097FE01E80FF11D5196B3
:100C50008C9151978095968189238683882339F4D6
:100C600052969C91529790958981892389831D96EC
:100C70001C921D9717961C921E921697DF91CF918A
:100C80000895FC011182168217820895282FDB0136
:100C9000809114068823D9F4F894E091C607F09166
:100CA000C707309779F0818192819093C70780932D
:100CB000C60785E0808323831282118278941C9278
:100CC000CF01089578948AE98C93CF0108958DE837
:100CD0008C93E0E0F0E0F4CFEF92FF920F931F933C
:100CE000CF93DF937C01FB01A0911506B09116060E
:100CF0001D968C911D9780621D968C931D971C9656
:100D00001C930E931B9740872187B583A483E7012B
:100D100089819A819183808313821282F782E6828D
:100D200089819A81009719F0EC017B836A83E7013E
:100D3000FA83E9835096EC915097F0E0E15FF94F28
:100D400051968C9151978095908189238083882337
:100D500041F452969C91909580910E068923809340
:100D60000E06DF91CF911F910F91FF90EF900895A4
:100D700089E495E09093C7078093C60710924905D0
:100D800010924B0510924A050895CF93DF93FC0112
:100D9000A281B381C081D181109751F01196DC936B
:100DA000CE93209711F0BB83AA83DF91CF91089552
:100DB0000680F781E02DD283C1832097B1F31B8297
:100DC0001A82DF91CF9108951F93CF93DF93EC01A7
:100DD000AC81BD811C961C921E921B971A966C9337
:100DE0001A971D968C911D978F7D1D968C931D973C
:100DF0008823E1F480910E0652969C915297892B9C
:100E000080930E065096EC915097F0E0E15FF94F19
:100E1000808151969C91892B808311E0CE010E94A4
:100E2000C506812FDF91CF911F91089510E0CE016B
:100E30000E94C506812FDF91CF911F910895FC017B
:100E4000F8948481958115821482789408959C0188
:100E5000809114068823D9F4F894E0911106F0915A
:100E60001206309731F08481958190931206809319
:100E700011067894309749F081E0808313821282C2
:100E800035832483118216821782CF010895E0E012
:100E9000F0E0CF0108952F923F924F925F926F92B0
:100EA0007F928F929F92AF92BF92CF92DF92EF92FA
:100EB000FF920F931F93CF93DF934C015A016B0165
:100EC000280139011701F8946091EC057091ED0546
:100ED0006115710549F0DB0112968D919C91139774
:100EE0009093ED058093EC0578946115710509F4F4
:100EF00066C0E401A60195012150304040405040B9
:100F000079F172018401040D151DF80180E090E073
:100F1000A0E0B0E0F983E883EF01EE0DFF1D01963C
:100F2000A11DB11D82179307A407B50798F38EEF93
:100F30009FEFAFEFBFEFA80EB91ECA1EDB1EEA9CE3
:100F4000E001EB9CD00DFA9CD00D112482E090E0E2
:100F5000A0E0B0E0A80EB91ECA1EDB1EC00FD11F54
:100F600019821882DB0111969C928E9213969C92A4
:100F70008E921297FB01A486B586C686D7861896F0
:100F8000AD92BD92CD92DC921B97448255826682CF
:100F90007782D1011C92CB01DF91CF911F910F91EC
:100FA000FF90EF90DF90CF90BF90AF909F908F9089
:100FB0007F906F905F904F903F902F9008958EE6B6
:100FC000F1018083E8CFCF93DF93FC01EB01F8942C
:100FD00024853585468557852115310541055105FF
:100FE000A9F0A281B3818D919C9111979383828303
:100FF00021503040404050402487358746875787EE
:1010000078941882CD01DF91CF910895789481E78B
:101010008883A0E0B0E0F6CFCF93DF93FC01EB0133
:10102000F894248535854685578580859185A285E8
:10103000B385281739074A075B0728F0789482E7B9
:10104000DF91CF91089582819381998388837383FF
:1010500062832F5F3F4F4F4F5F4F2487358746870F
:101060005787789480E0DF91CF91089580E595E0EF
:101070009093ED058093EC05109253051092520564
:10108000109251051092500510925C0510925D056A
:1010900010925E0510925F05109258051092590546
:1010A00010925A0510925B05109254051092550546
:1010B00010925605109257050895CF93DF93982FFD
:1010C000EB0180911406882309F042C0F894292F7F
:1010D00030E0D901AA0FBB1FA753B84F8D919C9147
:1010E0001197892B19F581E090E011969C938E93CE
:1010F000E0911106F0911206309709F184819581F3
:101100009093120680931106789484E08083922F46
:1011100088278F6F938382831582148211821682AF
:1011200017821882CF01DF91CF910895789488E2D9
:101130008883E0E0F0E0CF01DF91CF9108951D9228
:101140001C92789484E08883CF01DF91CF91089539
:101150008DE88883E0E0F0E0E5CF9C018091140603
:10116000882309F052C0F894E0911106F09112061C
:10117000309731F084819581909312068093110607
:1011800078943097A9F1F894A0910C06B0910D06CF
:10119000109781F18D919C91119790930D068093FA
:1011A0000C06789413963C932E931297CB01880FDC
:1011B000991F820F931F15969C938E9314971796E1
:1011C0003C932E93169719963C932E9318971B9643
:1011D0007C936E931A971D961C921E921C9782E028
:1011E000808313821282B583A483118216821782B0
:1011F000CF01089580911106909112069583848302
:10120000F0931206E09311067894E0E0F0E0CF014D
:1012100008958CEF95E09093EF058093EE050E977F
:101220001092FD051092FC0590930D0680930C061C
:1012300008959C01809114068823D9F4F894E091D4
:101240001106F0911206309731F0848195819093C8
:101250001206809311067894309749F083E08083DA
:101260003383228315821482118216821782CF0162
:101270000895E0E0F0E0CF010895FC01DB01F8946F
:10128000818114968C931497868112968C93129771
:10129000878113968C931397828193818D939C936E
:1012A000789480E008951F93CF93DF93182FF894DC
:1012B000C091E805D091E905209709F456C08A81CC
:1012C0009B819093E9058093E805789479836883FE
:1012D0001E871D861C861B86E12FE695E695E69502
:1012E000E88BF0E0EE5DFE4F80818A8BE12FE770A6
:1012F000EF87F0E0EE5DFE4F8081898B1F821E82BA
:1013000019861886CE010E946A05CE010E946205E8
:10131000F894E12FF0E0EE0FFF1FE753F84FD18371
:10132000C083E0914E05F0914F05FB83EA831D8257
:101330001C82309711F0D583C483D0934F05C0939E
:101340004E0580910E069A89892B80930E06E889B6
:10135000F0E0E15FF94F80819989892B808378944F
:1013600080E0DF91CF911F910895789486E4DF911A
:10137000CF911F910895F89480914405909145056F
:10138000A0914605B09147050196A11DB11D80931E
:10139000440590934505A0934605B093470578947E
:1013A0000E946905E8CFF89480911406882309F01B
:1013B0003FC0809142058823D9F5E0910E06F0E008
:1013C000E65DFE4F8081E82FF0E0E15FF94FE081BC
:1013D000F0E0E65DFE4F982F990F990F990F8081ED
:1013E000980F9093480580914D05981709F1E92FC2
:1013F000F0E0EE0FFF1FE753F84F8081918190934B
:101400000B0680930A068091E0059091E105A0917A
:10141000E205B091E3050196A11DB11D8093E005A1
:101420009093E105A093E205B093E3050E94451275
:10143000789408959C01009721F1F894A0911506E5
:10144000B09116065096EC915097F0E0E15FF94F9D
:1014500051968C9151978095908189238083882320
:1014600049F452969C915297909580910E0689234B
:1014700080930E061C963C932E931B9778940E94A3
:10148000D30908958F929F92AF92BF92CF92DF922D
:10149000EF92FF920F931F93CF93DF93882E162F17
:1014A000942E8823C9F01C3300F58BE3891590F046
:1014B00093E0283E3907D8F083E5DF91CF911F9163
:1014C0000F91FF90EF90DF90CF90BF90AF909F90E3
:1014D0008F90089582E5F1CF662329F7442329F7F9
:1014E0002115310529F784E5E8CF81E5E6CFB9017B
:1014F00080E090E024E630E040E050E00E94931964
:101500006C507E4F8F4F9F4F28EE33E040E050E00D
:101510000E94D91959016A01612F70E080E090E0C2
:101520002CE330E040E050E00E9493197B018C01F5
:10153000E90CF11C011D111D682D70E080E090E0A8
:1015400020E13EE040E050E00E949319E60EF71ED5
:10155000081F191FC801B70124E630E040E050E041
:101560000E949319A60EB71EC81ED91E7601002729
:101570001127E7018FEF9FEFA0E0B0E0A822B9228A
:10158000CA22DB22C5010E941A0AEF2851F080E02E
:1015900090E80E941A0A80E090E80E941A0A2197B7
:1015A000B1F780E08ACFDF92EF92FF920F931F9303
:1015B0008091C807882341F488EC90E00E941A0AC1
:1015C0008091C8078823C1F36091E4057091E50517
:1015D0008091E6059091E70524E630E040E050E098
:1015E0000E94D919C901DA017C018D01F4E6DF2ED0
:1015F00010C0A80197010E94D9198D2D821B87FD6B
:1016000044C08093EA050E94650584E690E00E944C
:101610001A0AF8948091440590914505A0914605D9
:10162000B09147058093E3079093E407A093E50703
:10163000B093E60760914405709145058091460599
:101640009091470510924405109245051092460569
:10165000109247057894E114F1040105110549F64B
:101660001092EA056091E4057091E5058091E60528
:101670009091E70524E630E040E050E00E94D9195F
:10168000C901DA017C018D01BECF1092EA05BBCF02
:1016900082E090E00E941A0AF89410924405109299
:1016A00045051092460510924705789484E690E02F
:1016B0000E941A0AF8948091440590914505A091E2
:1016C0004605B09147058093E4059093E505A09306
:1016D000E605B093E70581E08093C8077894089504
:1016E000AF92BF92CF92DF92EF92FF920F931F9330
:1016F000CF93DF93FC01122FF894C22FD0E0CC0FD0
:10170000DD1FC753D84F88819981892B71F0789458
:1017100018E2812FDF91CF911F910F91FF90EF90F1
:10172000DF90CF90BF90AF90089581E090E09983D3
:1017300088837894CF0120E030E00E943905BC0115
:10174000812F40E050E020E030E0EE24FF248701CC
:10175000CC24DD24AA24BB240E945309182F8823FB
:1017600071F4F8948091EB058F5F8093EB0578948A
:1017700080914305813069F60E94D309CACFF8945D
:10178000198218827894C5CFFC01F894818188234E
:1017900079F4828193812FEF8F3F920731F0019688
:1017A00093838283789480E00895789482E3089507
:1017B000CF0160E070E041E00E948A0578940E94C9
:1017C000D30980E008950F931F93CF93DF93EC012B
:1017D0008A0180911406882381F4F8948A819B8180
:1017E000009799F001979B838A837894FA0110827D
:1017F000DF91CF911F910F91089582E0FA018083CC
:10180000DF91CF911F910F910895E0911506F0910E
:10181000160685858160858774876387CE010E945F
:10182000E50578940E94D309F894E0911506F091AB
:101830001606858580FD0AC0178216827894F80105
:101840001082DF91CF911F910F910895CE010E94D8
:101850001A0678948AE0F8018083CACFFF920F932A
:101860001F93CF93DF93EC018A01809114068823A4
:1018700031F5F894F980FF20E9F4662371F4FF2034
:1018800009F44FC0789488E0F8018083CE01DF919D
:10189000CF911F910F91FF9008956130D1F078940E
:1018A00087E0F8018083CE01DF91CF911F910F91E6
:1018B000FF900895FF24F394662309F3EECF8CE89C
:1018C000FA018083CE01DF91CF911F910F91FF909C
:1018D0000895FF2049F0CE0160E070E041E00E94F1
:1018E0008A0589818823B9F7188280911106909121
:1018F00012069D838C83D0931206C09311067894B0
:10190000F1E0FF1659F0F8011082C0E0D0E0CE01FE
:10191000DF91CF911F910F91FF9008950E94D309FD
:10192000F2CF188280911106909112069D838C83CC
:10193000D0931206C09311067894F8011082C0E08B
:10194000D0E0C0CFEF92FF920F931F93CF93DF931E
:101950008C017A0180911406882309F05CC0F89408
:10196000F801A481B5811C968D919C911D970097DB
:1019700009F11896ED91FC911997C191D1911996A1
:10198000FC93EE93189701971D969C938E931C974A
:1019900014968D919C911597E817F90799F1789411
:1019A000F7011082CE01DF91CF911F910F91FF902F
:1019B000EF900895E0911506F091160685858460F4
:1019C000858774876387C8010E94E50578940E9423
:1019D000D309F894E0911506F0911606C085D185DB
:1019E0002097F9F011861086158617821682789452
:1019F000F7011082CE01DF91CF911F910F91FF90DF
:101A0000EF90089512968D919C91139719969C933F
:101A10008E931897C4CF82E0FA018083C0E0D0E0B3
:101A2000C1CFC8010E941A0678948AE0F70180832A
:101A3000B9CFCF93DF93EC01809114068823A1F4F2
:101A4000F8943A814B81A0911506B09116061E9626
:101A50008C911E97841761F0381709F454C078945C
:101A600088E7DF91CF91089585E0DF91CF910895C8
:101A70005096EC915097F0E0E15FF94F51968C91C0
:101A800051978095908189238083882349F45296C9
:101A90009C915297909580910E06892380930E0613
:101AA0001E963C931E97E32FE695E695E695509695
:101AB000EC935097F0E0EE5DFE4F208152962C9310
:101AC0005297E32FE7701F96EC931F97F0E0EE5DBF
:101AD000FE4F908151969C93519780910E06822BD8
:101AE00080930E065096EC915097F0E0E15FF94F2D
:101AF0008081982B9083E32FF0E0EE0FFF1FE753D8
:101B0000F84FB183A083E42FF0E0EE0FFF1FE753FF
:101B1000F84F81E090E0918380838981882361F48C
:101B20008A819B818F6F9B838A831D821C8278941C
:101B300080E0DF91CF910895CE0160E070E040E158
:101B40000E948A05E82FF0E08A819B8180708E2BAD
:101B50009F2B9B838A83EE0FFF1FE753F84F8081F3
:101B600091819D838C8378940E94D30980E079CF02
:101B70000F931F93CF93DF93EC018A01809114069A
:101B80008823A1F5F8942A813B812F3F09F460C096
:101B9000432FAC81BD811E968C911E97831709F44B
:101BA00052C0E0911506F09116068685821708F45A
:101BB00067C085858061858774876387CE010E94B1
:101BC000E50578940E94D309F894E0911506F09108
:101BD0001606858584FD9EC0178216827894F801CA
:101BE0001082DF91CF911F910F91089582E0FA0149
:101BF0008083DF91CF911F910F9108951E963C93A2
:101C00001E97E32FE695E695E6955096EC93509750
:101C1000F0E0EE5DFE4F808152968C935297E32F59
:101C2000E7701F96EC931F97F0E0EE5DFE4F80810A
:101C300051968C935197E42FF0E0EE0FFF1FE7537E
:101C4000F84FB183A083E0911506F0911606B1CF4D
:101C5000C90180709B838A83E0911506F091160676
:101C6000268530E0282B392B3B832A83FD83EC83A8
:101C70007894FA011082DF91CF911F910F9108950E
:101C800050968C915097E82FF0E0E15FF94F50812A
:101C900051969C915197852F892309F4AFCF892FB5
:101CA000809585238083882349F452969C9152978E
:101CB000909580910E06892380930E061E964C9374
:101CC0001E97E42FE695E695E6955096EC9350978F
:101CD000F0E0EE5DFE4F208152962C935297E42F58
:101CE000E7701F96EC931F97F0E0EE5DFE4F90813A
:101CF00051969C93519780910E06822B80930E06ED
:101D00005096EC915097F0E0E15FF94F8081982B6D
:101D1000908391CFCE010E941A0678948AE0F80150
:101D20008083DF91CF911F910F910895FC01F8946A
:101D30008181882339F484819581892B61F078949D
:101D400084E10895CF0142E00E948A0578940E94C0
:101D5000D30980E0089575836483789480E00895C2
:101D6000EF92FF920F931F93CF93DF938C017A0131
:101D7000809114068823A1F5F894F801C481D581D7
:101D8000209769F0158214827894FA011082CE01AE
:101D9000DF91CF911F910F91FF90EF900895E09107
:101DA0001506F0911606858582608587748763879E
:101DB000C8010E94E50578940E94D309F894E09147
:101DC0001506F0911606C085D185209779F0118609
:101DD00010861586178216827894F7011082D7CF65
:101DE00082E0FA018083C0E0D0E0D1CFC8010E9438
:101DF0001A0678948AE0F7018083C9CFFF920F9387
:101E00001F93CF93DF93EC018A01809114068823FE
:101E100031F5F894F980FF20E9F4662371F4FF208E
:101E200009F44FC0789488E0F8018083CE01DF91F7
:101E3000CF911F910F91FF9008956130D1F0789468
:101E400087E0F8018083CE01DF91CF911F910F9140
:101E5000FF900895FF24F394662309F3EECF8CE8F6
:101E6000FA018083CE01DF91CF911F910F91FF90F6
:101E70000895FF2049F0CE0160E070E042E00E944A
:101E80008A0589818823B9F718828091110690917B
:101E900012069D838C83D0931206C093110678940A
:101EA000F1E0FF1659F0F8011082C0E0D0E0CE0159
:101EB000DF91CF911F910F91FF9008950E94D30958
:101EC000F2CF188280911106909112069D838C8327
:101ED000D0931206C09311067894F8011082C0E0E6
:101EE000D0E0C0CFCF92DF92EF92FF920F931F937B
:101EF000DF93CF930F92CDB7DEB78C017901F894C1
:101F0000442309F054C06095FC01838186238383B8
:101F1000F801C180D280C114D10409F458C01982DB
:101F20000AC08330B1F1F601808191819C01690181
:101F300021153105D1F0F6018185823091F7F60146
:101F40006085F80183818623681769F7C6010E94BE
:101F5000E406813041F7F1E0F983F6018081918157
:101F60009C0169012115310531F77894F981F1302F
:101F700059F1F894F80183817894F70110820F9059
:101F8000CF91DF911F910F91FF90EF90DF90CF9055
:101F90000895F6016085F8018381682309F4C3CFB1
:101FA000C6010E94E406813009F0BDCFD4CF413094
:101FB00031F0789489E9F901808380E0E0CFFC0179
:101FC0008381862B8383A4CF0E94D309D2CF198229
:101FD000CCCF8F929F92AF92BF92CF92DF92FF921F
:101FE0000F931F93DF93CF93CDB7DEB72B970FB629
:101FF000F894DEBF0FBECDBF6C01562FF42EF90151
:10200000580180911406882309F547FD24C01B86DA
:10201000F89482E0F81639F1A3E0FA16C9F1789441
:1020200087E9F501808380E02B960FB6F894DEBF38
:102030000FBECDBFCF91DF911F910F91FF90DF9029
:10204000CF90BF90AF909F908F90089582E0D8017D
:102050008C9380E0E9CFBFE7FB2221E02B87F89447
:1020600082E0F816C9F6D60113969C91852F892334
:10207000851709F5BB85B13031F4852F809589230B
:10208000F6018383982F892F7894D5011C92CCCFA9
:10209000D60113969C91852F892369F1BB85B130B8
:1020A00029F480958923F6018383982F892F7894CA
:1020B000D5011C92B9CFC6014E010894811C911C18
:1020C000B401452F22E08F010E946C0678940E9493
:1020D000D309F894E0911506F0911606858585FDE3
:1020E00017C0BB85B13011F1F6019381892F789427
:1020F000D5011C9299CFC6014E010894811C911CF8
:10210000B401452F23E08F010E946C067894DFCF45
:10211000C4010E94C506E0911506F09116061586C9
:1021200078948AE0D5018C9380E07ECF2EEFF20E7A
:1021300081E08F1520F4D60113969C91D7CF82852C
:102140008095F601938198239383D0CF80914305A6
:10215000813009F00895F89480914205882359F060
:10216000815080934205882321F4809114068823AE
:1021700021F0789408957894089578940E94D30972
:1021800008950E94660580914305813009F0089505
:10219000A0914E05B0914F051E968C911E978C30E4
:1021A000B1F320910E0641E050E01AC052968C9196
:1021B0005297282B5096EC915097F0E0E15FF94F41
:1021C000808151969C915197892B808312960D9016
:1021D000BC91A02D78941E968C911E978C30C1F0E6
:1021E000F8941B968D919C911C97009779F3019719
:1021F0001C969C938E931B97892B41F71D968C916F
:102200001D9783FFD3CF1C965C934E931B97DECF15
:1022100020930E0608958091430581110895E09161
:102220000E06F0E0E65DFE4FA081EA2FF0E0E15FF0
:10223000F94FE081F0E0E65DFE4FAA0FAA0FAA0F6A
:102240008081A80FA0934805A0934D05B0E0AA0F88
:10225000BB1FA753B84F8D919C9190930B06809311
:102260000A0690931606809315060E94111208958F
:1022700080914305813009F00895F8948091140607
:10228000882339F0815080931406882311F07894C4
:102290000895809142058823D1F7E0910E06F0E081
:1022A000E65DFE4F808180931306E82FF0E0E15F4A
:1022B000F94FE081F0E0E65DFE4F982F990F990FFE
:1022C000990F8081980F9093480580914D0598173C
:1022D000F1F2E92FF0E0EE0FFF1FE753F84F808196
:1022E000918190930B0680930A068091E00590916E
:1022F000E105A091E205B091E3050196A11DB11D94
:102300008093E0059093E105A093E205B093E30587
:102310000E94A812BCCF0E9467051092140610926A
:1023200042051092EB05109243051092E0051092C1
:10233000E1051092E2051092E30510924405109217
:102340004505109246051092470510920E06109210
:102350000F061092100610924D051092480510922B
:102360000B0610920A06109216061092150610928D
:102370004F0510924E05E9ECF7E01192119227E01B
:10238000E33EF207D1F782EE96E0FC01719791836C
:102390008083439627E0863C9207B9F71092B607F0
:1023A0001092B5078FEC96E09093E9058093E805CD
:1023B00027E936E0F901CF010896108295838483DE
:1023C000FC0186E0E73CF807B1F710821582148221
:1023D000309312062093110689E495E09093C70785
:1023E0008093C6071092490510924B0510924A053A
:1023F0000E9436080E9409098BEB99E060E070E0CA
:1024000046E956E02CE00E94700B83ED9AE060E014
:1024100070E04FED55E02BE00E94700B0E946805C4
:1024200008950E94640500914305039500934305B8
:10243000E0910A06F0910B06C191CDBFD191DEBFAC
:102440000F910FBF0F910BBFFF91EF91DF91CF91D4
:10245000BF91AF919F918F917F916F915F914F91BC
:102460003F912F911F910F91FF90EF90DF90CF90B0
:10247000BF90AF909F908F907F906F905F904F90A4
:102480003F902F901F900F9008950F921F922F92C0
:102490003F924F925F926F927F928F929F92AF92F4
:1024A000BF92CF92DF92EF92FF920F931F932F93E1
:1024B0003F934F935F936F937F938F939F93AF93CC
:1024C000BF93CF93DF93EF93FF930BB70F930FB7A8
:1024D0000F93E0911506F0911606CDB7C193DEB7C4
:1024E000D1930E9464050091480500934D05E09149
:1024F0000A06F0910B06E0931506F0931606C191BB
:10250000CDBFD191DEBF0F910FBF0F910BBFFF91D8
:10251000EF91DF91CF91BF91AF919F918F917F917B
:102520006F915F914F913F912F911F910F91FF906C
:10253000EF90DF90CF90BF90AF909F908F907F9063
:102540006F905F904F903F902F901F900F90089545
:102550000E9464050091480500934D05E0910A062C
:10256000F0910B06E0931506F0931606C191CDBFCE
:10257000D191DEBF0F910FBF0F910BBFFF91EF9174
:10258000DF91CF91BF91AF919F918F917F916F918B
:102590005F914F913F912F911F910F91FF90EF907D
:1025A000DF90CF90BF90AF909F908F907F906F9073
:1025B0005F904F903F902F901F900F9008950F9233
:1025C0001F922F923F924F925F926F927F928F92C3
:1025D0009F92AF92BF92CF92DF92EF92FF920F93B2
:1025E0001F932F933F934F935F936F937F938F939B
:1025F0009F93AF93BF93CF93DF93EF93FF930BB76B
:102600000F930FB700680F93009114060395009382
:102610001406013041F4CDB7DEB7E0911506F09114
:102620001606C193D19304E602BF78940E94C110AC
:1026300000000E9438110F910FBF0F910BBFFF9147
:10264000EF91DF91CF91BF91AF919F918F917F914A
:102650006F915F914F913F912F911F910F91FF903B
:10266000EF90DF90CF90BF90AF909F908F907F9032
:102670006F905F904F903F902F901F900F90089514
:10268000EF92FF920F931F937B018C0120E030E0CB
:1026900040E05FE40E94BC1688238CF0C801B701BB
:1026A00020E030E040E05FE40E94B8140E944A1746
:1026B0009B01AC01205030404040504806C0C8014A
:1026C000B7010E944A179B01AC01B901CA011F91D1
:1026D0000F91FF90EF900895A0E0B0E0E2E7F3E102
:1026E0000C94FB19DC012B01FA019C91923008F447
:1026F00039C1EB018881823008F433C1943069F428
:10270000843009F02FC111969C91119789819817F7
:1027100009F428C1AAE2B2E025C1843009F421C13C
:102720008230A9F4923009F01DC19A01AD0188E010
:10273000EA010990AE01E90109929E018150C1F7B9
:10274000E201898111969C918923818308C192308D
:1027500009F407C112962D903C901397EB018A81E2
:102760009B811496AD90BD90CD90DC901797EC8036
:10277000FD800E811F819101281B390BB90137FFA4
:1027800004C066277727621B730B603271050CF05B
:1027900061C0121613066CF537014801062E04C0FD
:1027A00096948794779467940A94D2F721E030E066
:1027B00040E050E004C0220F331F441F551F6A95AC
:1027C000D2F721503040404050402E213F2140233D
:1027D0005123211531054105510521F021E030E05B
:1027E00040E050E079018A01E628F72808291929F4
:1027F0003CC0232BD1F1260E371E35014601062E93
:1028000004C096948794779467940A94D2F721E051
:1028100030E040E050E004C0220F331F441F551F3A
:102820006A95D2F721503040404050402A213B2148
:102830004C215D21211531054105510521F021E093
:1028400030E040E050E059016A01A628B728C828C6
:10285000D9280BC0821593052CF01C01AA24BB2497
:10286000650103C0EE24FF24870111969C91D201DB
:1028700011968C91981709F445C0992339F0A80155
:1028800097012A193B094C095D0906C0A60195016B
:102890002E193F09400B510B57FD08C0118233829E
:1028A000228224833583468357831DC081E0818340
:1028B0003382228288279927DC01821B930BA40B89
:1028C000B50B84839583A683B7830DC0220F331F76
:1028D000441F551F24833583468357838281938108
:1028E0000197938382832481358146815781DA0160
:1028F000C9010197A109B1098F5F9F4FAF4FBF4336
:1029000028F30BC0918333822282EA0CFB1C0C1D3E
:102910001D1DE482F5820683178383E08083248172
:1029200035814681578157FF1AC0C901AA2797FDF3
:10293000A095BA2F81709070A070B0705695479591
:1029400037952795822B932BA42BB52B84839583C6
:10295000A683B78382819381019693838283DF016B
:1029600001C0D201CD01CDB7DEB7E2E10C94171A58
:10297000A0E2B0E0EEEBF4E10C94071A69837A83ED
:102980008B839C832D833E834F835887E9E0EE2E13
:10299000F12CEC0EFD1ECE010196B7010E94C2186B
:1029A0008E010F5E1F4FCE010596B8010E94C2181E
:1029B0008A8991E089278A8BC701B801AE01475EF9
:1029C0005F4F0E946C130E94ED17A096E6E00C94F6
:1029D000231AA0E2B0E0EFEEF4E10C94071A698349
:1029E0007A838B839C832D833E834F835887F9E0C2
:1029F000EF2EF12CEC0EFD1ECE010196B7010E94C8
:102A0000C2188E010F5E1F4FCE010596B8010E94BD
:102A1000C218C701B801AE01475E5F4F0E946C1338
:102A20000E94ED17A096E6E00C94231AA0E2B0E015
:102A3000ECE1F5E10C94FB1969837A838B839C8329
:102A40002D833E834F835887CE010196BE01675F79
:102A50007F4F0E94C218CE010596BE016F5E7F4F68
:102A60000E94C2189985923088F089898230C8F016
:102A7000943019F4823051F404C0843029F4923037
:102A800081F48AE292E0C6C0923049F420E09A854F
:102A90008A89981321E02A87CE010996BBC082302B
:102AA00049F420E09A858A89981321E02A8BCE0187
:102AB0004196B0C02D843E844F8458886D887E88AE
:102AC0008F88988CEE24FF248701AA24BB246501FB
:102AD00040E050E060E070E0E0E0F0E0C1018170D3
:102AE0009070892BE9F0E60CF71C081D191D9A015E
:102AF000AB012A0D3B1D4C1D5D1D80E090E0A0E068
:102B0000B0E0E614F7040805190520F481E090E030
:102B1000A0E0B0E0BA01A901480F591F6A1F7B1F4E
:102B2000AA0CBB1CCC1CDD1C97FE08C081E090E009
:102B3000A0E0B0E0A82AB92ACA2ADB2A3196E032FE
:102B4000F10549F0660C771C881C991C5694479433
:102B500037942794C3CFFA85EA892B893C898B85E2
:102B60009C85280F391F2E5F3F4F17C0CA01817007
:102B70009070892B61F016950795F794E79480E0A3
:102B800090E0A0E0B0E8E82AF92A0A2B1B2B769502
:102B90006795579547952F5F3F4F77FDE7CF0CC05F
:102BA000440F551F661F771F17FD4160EE0CFF1C79
:102BB000001F111F21503040403090E0590790E035
:102BC000690790E4790760F32B8F3C8FDB01CA0122
:102BD0008F779070A070B07080349105A105B10519
:102BE00061F447FD0AC0E114F1040105110529F063
:102BF000405C5F4F6F4F7F4F40781A8EFE1711F089
:102C000081E08A8F4D8F5E8F6F8F78A383E0898FED
:102C1000CE0149960E94ED17A096E2E10C94171A96
:102C2000A8E1B0E0E6E1F6E10C94031A69837A8347
:102C30008B839C832D833E834F835887B9E0EB2E93
:102C4000F12CEC0EFD1ECE010196B7010E94C218B8
:102C50008E010F5E1F4FCE010596B8010E94C2186B
:102C60002985223008F47EC03989323010F4B80149
:102C70007CC08A859A8989278A87243011F022307E
:102C800031F4231709F06EC06AE272E06EC034308E
:102C900039F41D861E861F86188A1C861B8604C072
:102CA000323021F484E08987B7015FC02B853C85F1
:102CB0008B899C89281B390B3C872B87ED84FE84EC
:102CC0000F851889AD88BE88CF88D88CEA14FB049C
:102CD0000C051D0540F4EE0CFF1C001F111F2150B8
:102CE00030403C872B8720E030E040E050E080E03F
:102CF00090E0A0E0B0E460E070E0EA14FB040C05B2
:102D00001D0540F0282B392B4A2B5B2BEA18FB08BA
:102D10000C091D09B695A79597958795EE0CFF1C94
:102D2000001F111F6F5F7F4F6F31710531F7DA019F
:102D3000C9018F779070A070B07080349105A105A3
:102D4000B10561F427FD0AC0E114F1040105110584
:102D500029F0205C3F4F4F4F5F4F20782D873E87F3
:102D60004F87588BBE01675F7F4FCB010E94ED17E5
:102D70006896EAE00C941F1AA8E1B0E0E2ECF6E1F4
:102D80000C94071A69837A838B839C832D833E83FB
:102D90004F83588789E0E82EF12CEC0EFD1ECE0102
:102DA0000196B7010E94C2188E010F5E1F4FCE011F
:102DB0000596B8010E94C2188985823040F0898941
:102DC000823028F0C701B8010E943A1901C08FEF84
:102DD0006896E6E00C94231AA8E0B0E0E2EFF6E192
:102DE0000C94041A9B01AC0183E08983DA01C901C8
:102DF0008827B7FD83959927AA27BB27B82E2115C9
:102E000031054105510519F482E089833AC08823D0
:102E1000A9F0203080E0380780E0480780E85807B4
:102E200029F460E070E080E09FEC30C0EE24FF24E5
:102E30008701E21AF30A040B150B02C079018A011B
:102E40008EE1C82ED12CDC82CB82ED82FE820F83F4
:102E50001887C801B7010E949E1701971816190616
:102E600084F4082E04C0EE0CFF1C001F111F0A94EE
:102E7000D2F7ED82FE820F831887C81AD90ADC8246
:102E8000CB82BA82CE0101960E94ED172896E9E026
:102E90000C94201AACE0B0E0E0E5F7E10C940B1ADA
:102EA00069837A838B839C83CE010196BE016B5F1D
:102EB0007F4F0E94C2188D81823061F1823050F1C3
:102EC000843021F48E81882351F12EC02F813885E2
:102ED00037FD20C06E812F3131051CF06623F9F0DB
:102EE00023C08EE190E0821B930B29853A854B85A8
:102EF0005C8504C056954795379527958A95D2F7F6
:102F00006623B1F050954095309521953F4F4F4F36
:102F10005F4F0EC020E030E040E050E009C02FEFEE
:102F20003FEF4FEF5FE704C020E030E040E050E8C3
:102F3000B901CA012C96E2E00C94271AEF92FF9295
:102F40000F931F937B018C0180E0E81680E0F80668
:102F500081E0080780E0180788F48FEFE816F10495
:102F60000105110531F028F088E090E0A0E0B0E024
:102F700017C080E090E0A0E0B0E012C080E0E8166A
:102F800080E0F80680E0080781E0180728F088E173
:102F900090E0A0E0B0E004C080E190E0A0E0B0E00C
:102FA00020E230E040E050E0281B390B4A0B5B0B7D
:102FB00004C016950795F794E7948A95D2F7F70120
:102FC000EE5CFD4F8081281B310941095109C9017F
:102FD0001F910F91FF90EF900895DF92EF92FF9273
:102FE0000F931F93FC01E480F58006811781D18047
:102FF0008081823048F480E090E0A0E1B0E0E82AEF
:10300000F92A0A2B1B2BA5C0843009F49FC08230FB
:1030100021F4EE24FF24870105C0E114F104010529
:10302000110519F4E0E0F0E096C0628173819FEF32
:10303000623879070CF05BC022E83FEF261B370BA4
:103040002A3131052CF020E030E040E050E02AC089
:10305000B801A701022E04C076956795579547954C
:103060000A94D2F781E090E0A0E0B0E004C0880FBD
:10307000991FAA1FBB1F2A95D2F70197A109B10971
:103080008E219F21A023B1230097A105B10521F036
:1030900081E090E0A0E0B0E09A01AB01282B392B51
:1030A0004A2B5B2BDA01C9018F779070A070B0704A
:1030B00080349105A105B10539F427FF09C0205CD2
:1030C0003F4F4F4F5F4F04C0215C3F4F4F4F5F4F0B
:1030D000E0E0F0E02030A0E03A07A0E04A07A0E4FA
:1030E0005A0710F0E1E0F0E079018A0127C060386A
:1030F000710564F5FB01E158FF4FD801C7018F77D7
:103100009070A070B07080349105A105B10539F4BC
:10311000E7FE0DC080E490E0A0E0B0E004C08FE3E3
:1031200090E0A0E0B0E0E80EF91E0A1F1B1F17FF99
:1031300005C016950795F794E794319687E01695A4
:103140000795F794E7948A95D1F705C0EE24FF24FC
:103150008701EFEFF0E06E2F679566276795902F58
:103160009F77D794DD24D7948E2F8695492F462BB1
:10317000582F5D29B701CA011F910F91FF90EF9061
:10318000DF900895FC01DB01408151812281622F93
:103190006F7770E0221F2227221F9381892F880FCB
:1031A000822B282F30E0991F9927991F11969C9305
:1031B000119721153105A9F54115510561057105D5
:1031C00011F482E037C082E89FEF13969C938E93B0
:1031D00012979A01AB0167E0220F331F441F551F5E
:1031E0006A95D1F783E08C930DC0220F331F441FE3
:1031F000551F12968D919C911397019713969C934E
:103200008E931297203080E0380780E0480780E4F2
:10321000580758F314962D933D934D935C9317974D
:1032200008952F3F310579F4411551056105710568
:1032300019F484E08C93089564FF03C081E08C93BB
:1032400012C01C9210C02F57304013963C932E93FF
:10325000129783E08C9387E0440F551F661F771FFA
:103260008A95D1F7706414964D935D936D937C931A
:10327000179708951F93DC01FB019C91923008F48D
:1032800047C08081823008F443C0943051F41196D5
:103290001C91843099F58181682F70E0611B710960
:1032A0003FC0843021F0923031F48230B9F1818115
:1032B000882389F12DC011961C9111978230F1F06D
:1032C00081811817D9F412962D913C911397828120
:1032D00093818217930794F028173907BCF014964E
:1032E0008D919D910D90BC91A02D248135814681B9
:1032F0005781281739074A075B0718F4112341F053
:103300000AC082179307A407B50740F4112319F0E8
:1033100061E070E005C06FEF7FEF02C060E070E039
:10332000CB011F910895629FD001739FF001829F8E
:10333000E00DF11D649FE00DF11D929FF00D839F44
:10334000F00D749FF00D659FF00D9927729FB00DE1
:10335000E11DF91F639FB00DE11DF91FBD01CF01F4
:1033600011240895AA1BBB1B51E107C0AA1FBB1F54
:10337000A617B70710F0A61BB70B881F991F5A9501
:10338000A9F780959095BC01CD01089597FB092E72
:1033900007260AD077FD04D0E5DF06D000201AF416
:1033A000709561957F4F0895F6F7909581959F4FA1
:1033B0000895A1E21A2EAA1BBB1BFD010DC0AA1F76
:1033C000BB1FEE1FFF1FA217B307E407F50720F08E
:1033D000A21BB30BE40BF50B661F771F881F991F09
:1033E0001A9469F760957095809590959B01AC0152
:1033F000BD01CF0108952F923F924F925F926F923D
:103400007F928F929F92AF92BF92CF92DF92EF9274
:10341000FF920F931F93CF93DF93CDB7DEB7CA1BF5
:10342000DB0B0FB6F894DEBF0FBECDBF09942A8820
:10343000398848885F846E847D848C849B84AA84C8
:10344000B984C884DF80EE80FD800C811B81AA8155
:10345000B981CE0FD11D0FB6F894DEBF0FBECDBF20
:08346000ED010895F894FFCF7F
:103468003F065B4F666D7C077F67400001020408DA
:1034780011002B0042004D0061007200810089009C
:103488000100010204081020408000000100020031
:103498000100030001000200010004000100020015
:1034A8000100030001000200010005000100020004
:1034B80001000300010002000100040001000200F5
:1034C80001000300010002000100060001000200E3
:1034D80001000300010002000100040001000200D5
:1034E80001000300010002000100050001000200C4
:1034F80001000300010002000100040001000200B5
:1035080001000300010002000100070001000200A1
:103518000100030001000200010004000100020094
:103528000100030001000200010005000100020083
:103538000100030001000200010004000100020074
:103548000100030001000200010006000100020062
:103558000100030001000200010004000100020054
:103568000100030001000200010005000100020043
:103578000100030001000200010004000100020034
:10358800010003000100020001000000000000002B
:1035980000000001020203030303040404040404FA
:1035A80004040505050505050505050505050505C5
:1035B80005050606060606060606060606060606A5
:1035C8000606060606060606060606060606060693
:1035D8000606070707070707070707070707070775
:1035E8000707070707070707070707070707070763
:1035F8000707070707070707070707070707070753
:103608000707070707070707070707070707070742
:103618000707080808080808080808080808080824
:103628000808080808080808080808080808080812
:103638000808080808080808080808080808080802
:1036480008080808080808080808080808080808F2
:1036580008080808080808080808080808080808E2
:1036680008080808080808080808080808080808D2
:1036780008080808080808080808080808080808C2
:1036880008080808080808080808080808080808B2
:02369800080820
:00000001FF
