:100000000C9446000C945D000C945D000C945D0013
:100010000C945D000C945D000C945D000C945D00EC
:100020000C945D000C945D000C945D000C945D00DC
:100030000C945D000C945D000C945D000C945D00CC
:100040000C945D000C945D000C945D000C945D00BC
:100050000C945D000C945D000C945D000C945D00AC
:100060000C945D000C945D000C945D000C945D009C
:100070000C945D000C945D000C945D000C945D008C
:100080000C945D000C945D000C945D0011241FBE67
:10009000CFEFD0E1DEBFCDBF11E0A0E0B1E0E6E9F7
:1000A000F1E000E00BBF02C007900D92A831B1074C
:1000B000D9F70E945F000C94C9000C940000EF92E5
:1000C000FF920F931F93CF93DF938FEF84BB8FE04B
:1000D0008093640020E030E000E010E080E1E82E52
:1000E00087E2F82E32C0C9016AE070E00E94B500D4
:1000F0009B01C230D10559F4C9016AE070E00E9449
:10010000B500FC01E050FF4F8081806809C0C90143
:100110006AE070E00E94B500FC01E050FF4F808172
:1001200085BBFE01ED5EFE4F808180936500C701B7
:100130000197F1F72196C430D105A9F60F5F1F4F43
:10014000980187E20031180719F0C0E0D0E0D1CF64
:100150008091000185BB81E080936500DF91CF91A4
:100160001F910F91FF90EF900895AA1BBB1B51E1C7
:1001700007C0AA1FBB1FA617B70710F0A61BB70B17
:10018000881F991F5A95A9F780959095BC01CD01BC
:060190000895F894FFCF72
:100196003F065B4F666D7D277F6F777C395E797191
:0801A60080400801020408007A
:00000001FF
